{
    "contractName": "SportPrediction",
    "abi": [
        {
            "anonymous": false,
            "inputs": [
                {
                    "indexed": false,
                    "internalType": "address",
                    "name": "previousAdmin",
                    "type": "address"
                },
                {
                    "indexed": false,
                    "internalType": "address",
                    "name": "newAdmin",
                    "type": "address"
                }
            ],
            "name": "AdminChanged",
            "type": "event"
        },
        {
            "anonymous": false,
            "inputs": [
                {
                    "indexed": true,
                    "internalType": "address",
                    "name": "beacon",
                    "type": "address"
                }
            ],
            "name": "BeaconUpgraded",
            "type": "event"
        },
        {
            "anonymous": false,
            "inputs": [
                {
                    "indexed": false,
                    "internalType": "address",
                    "name": "_address",
                    "type": "address"
                }
            ],
            "name": "OracleAddressSet",
            "type": "event"
        },
        {
            "anonymous": false,
            "inputs": [
                {
                    "indexed": true,
                    "internalType": "address",
                    "name": "previousOwner",
                    "type": "address"
                },
                {
                    "indexed": true,
                    "internalType": "address",
                    "name": "newOwner",
                    "type": "address"
                }
            ],
            "name": "OwnershipTransferred",
            "type": "event"
        },
        {
            "anonymous": false,
            "inputs": [
                {
                    "indexed": false,
                    "internalType": "uint256",
                    "name": "_address",
                    "type": "uint256"
                }
            ],
            "name": "PredictAmountSet",
            "type": "event"
        },
        {
            "anonymous": false,
            "inputs": [
                {
                    "indexed": false,
                    "internalType": "bytes32",
                    "name": "_eventId",
                    "type": "bytes32"
                },
                {
                    "indexed": false,
                    "internalType": "address",
                    "name": "_player",
                    "type": "address"
                },
                {
                    "indexed": false,
                    "internalType": "int8",
                    "name": "_teamAScore",
                    "type": "int8"
                },
                {
                    "indexed": false,
                    "internalType": "int8",
                    "name": "_teamBScore",
                    "type": "int8"
                },
                {
                    "indexed": false,
                    "internalType": "uint256",
                    "name": "_amount",
                    "type": "uint256"
                },
                {
                    "indexed": false,
                    "internalType": "bool",
                    "name": "_predicted",
                    "type": "bool"
                }
            ],
            "name": "PredictionPlaced",
            "type": "event"
        },
        {
            "anonymous": false,
            "inputs": [
                {
                    "indexed": true,
                    "internalType": "address",
                    "name": "implementation",
                    "type": "address"
                }
            ],
            "name": "Upgraded",
            "type": "event"
        },
        {
            "inputs": [],
            "name": "claim",
            "outputs": [],
            "stateMutability": "view",
            "type": "function"
        },
        {
            "inputs": [],
            "name": "crp",
            "outputs": [
                {
                    "internalType": "contract IERC20Upgradeable",
                    "name": "",
                    "type": "address"
                }
            ],
            "stateMutability": "view",
            "type": "function"
        },
        {
            "inputs": [],
            "name": "getPredictableEvents",
            "outputs": [
                {
                    "components": [
                        {
                            "internalType": "bytes32",
                            "name": "id",
                            "type": "bytes32"
                        },
                        {
                            "internalType": "string",
                            "name": "teamA",
                            "type": "string"
                        },
                        {
                            "internalType": "string",
                            "name": "teamB",
                            "type": "string"
                        },
                        {
                            "internalType": "uint256",
                            "name": "startTimestamp",
                            "type": "uint256"
                        },
                        {
                            "internalType": "uint256",
                            "name": "endTimestamp",
                            "type": "uint256"
                        },
                        {
                            "internalType": "enum ISportPrediction.EventOutcome",
                            "name": "outcome",
                            "type": "uint8"
                        },
                        {
                            "internalType": "int8",
                            "name": "realTeamAScore",
                            "type": "int8"
                        },
                        {
                            "internalType": "int8",
                            "name": "realTeamBScore",
                            "type": "int8"
                        }
                    ],
                    "internalType": "struct ISportPrediction.SportEvent[]",
                    "name": "",
                    "type": "tuple[]"
                }
            ],
            "stateMutability": "view",
            "type": "function"
        },
        {
            "inputs": [
                {
                    "internalType": "address",
                    "name": "_user",
                    "type": "address"
                },
                {
                    "internalType": "bytes32[]",
                    "name": "_eventIds",
                    "type": "bytes32[]"
                }
            ],
            "name": "getUserPredictions",
            "outputs": [
                {
                    "components": [
                        {
                            "internalType": "address",
                            "name": "user",
                            "type": "address"
                        },
                        {
                            "internalType": "bytes32",
                            "name": "eventId",
                            "type": "bytes32"
                        },
                        {
                            "internalType": "uint256",
                            "name": "amount",
                            "type": "uint256"
                        },
                        {
                            "internalType": "int8",
                            "name": "teamAScore",
                            "type": "int8"
                        },
                        {
                            "internalType": "int8",
                            "name": "teamBScore",
                            "type": "int8"
                        },
                        {
                            "internalType": "bool",
                            "name": "predicted",
                            "type": "bool"
                        }
                    ],
                    "internalType": "struct SportPrediction.Prediction[]",
                    "name": "",
                    "type": "tuple[]"
                }
            ],
            "stateMutability": "view",
            "type": "function"
        },
        {
            "inputs": [
                {
                    "internalType": "address",
                    "name": "_oracleAddress",
                    "type": "address"
                },
                {
                    "internalType": "address",
                    "name": "_crp",
                    "type": "address"
                },
                {
                    "internalType": "uint256",
                    "name": "_predictAmount",
                    "type": "uint256"
                }
            ],
            "name": "initialize",
            "outputs": [],
            "stateMutability": "nonpayable",
            "type": "function"
        },
        {
            "inputs": [],
            "name": "owner",
            "outputs": [
                {
                    "internalType": "address",
                    "name": "",
                    "type": "address"
                }
            ],
            "stateMutability": "view",
            "type": "function"
        },
        {
            "inputs": [
                {
                    "internalType": "bytes32",
                    "name": "_eventId",
                    "type": "bytes32"
                },
                {
                    "internalType": "int8",
                    "name": "_teamAScore",
                    "type": "int8"
                },
                {
                    "internalType": "int8",
                    "name": "_teamBScore",
                    "type": "int8"
                }
            ],
            "name": "predict",
            "outputs": [],
            "stateMutability": "nonpayable",
            "type": "function"
        },
        {
            "inputs": [],
            "name": "predictAmount",
            "outputs": [
                {
                    "internalType": "uint256",
                    "name": "",
                    "type": "uint256"
                }
            ],
            "stateMutability": "view",
            "type": "function"
        },
        {
            "inputs": [],
            "name": "proxiableUUID",
            "outputs": [
                {
                    "internalType": "bytes32",
                    "name": "",
                    "type": "bytes32"
                }
            ],
            "stateMutability": "view",
            "type": "function"
        },
        {
            "inputs": [],
            "name": "renounceOwnership",
            "outputs": [],
            "stateMutability": "nonpayable",
            "type": "function"
        },
        {
            "inputs": [
                {
                    "internalType": "address",
                    "name": "_oracleAddress",
                    "type": "address"
                }
            ],
            "name": "setOracleAddress",
            "outputs": [],
            "stateMutability": "nonpayable",
            "type": "function"
        },
        {
            "inputs": [
                {
                    "internalType": "uint256",
                    "name": "_predictAmount",
                    "type": "uint256"
                }
            ],
            "name": "setPredictAmount",
            "outputs": [],
            "stateMutability": "nonpayable",
            "type": "function"
        },
        {
            "inputs": [
                {
                    "internalType": "address",
                    "name": "newOwner",
                    "type": "address"
                }
            ],
            "name": "transferOwnership",
            "outputs": [],
            "stateMutability": "nonpayable",
            "type": "function"
        },
        {
            "inputs": [
                {
                    "internalType": "address",
                    "name": "newImplementation",
                    "type": "address"
                }
            ],
            "name": "upgradeTo",
            "outputs": [],
            "stateMutability": "nonpayable",
            "type": "function"
        },
        {
            "inputs": [
                {
                    "internalType": "address",
                    "name": "newImplementation",
                    "type": "address"
                },
                {
                    "internalType": "bytes",
                    "name": "data",
                    "type": "bytes"
                }
            ],
            "name": "upgradeToAndCall",
            "outputs": [],
            "stateMutability": "payable",
            "type": "function"
        },
        {
            "inputs": [
                {
                    "internalType": "address",
                    "name": "_user",
                    "type": "address"
                },
                {
                    "internalType": "bytes32[]",
                    "name": "_eventIds",
                    "type": "bytes32[]"
                }
            ],
            "name": "userPredictStatus",
            "outputs": [
                {
                    "internalType": "bool[]",
                    "name": "",
                    "type": "bool[]"
                }
            ],
            "stateMutability": "view",
            "type": "function"
        }
    ],
    "bytecode": "60a06040523060805234801561001457600080fd5b506080516123d161004c6000396000818161041601528181610456015281816109e201528181610a220152610ab501526123d16000f3fe6080604052600436106100f35760003560e01c80635c453e461161008a5780639eeec83e116100595780639eeec83e1461028c578063cedc1f7b146102ac578063f2fde38b146102cc578063fc572b9a146102ec57600080fd5b80635c453e461461020a578063715018a6146102375780638d6d032f1461024c5780638da5cb5b1461026e57600080fd5b80634c69c00f116100c65780634c69c00f146101a85780634e71d92d146101c85780634f1ef286146101d457806352d1902d146101e757600080fd5b80631794bb3c146100f85780633659cfe61461011a5780633760fe8f1461013a5780633fd8108e14610170575b600080fd5b34801561010457600080fd5b50610118610113366004611ab2565b610302565b005b34801561012657600080fd5b50610118610135366004611aee565b61040c565b34801561014657600080fd5b5061015a610155366004611b9e565b6104eb565b6040516101679190611c47565b60405180910390f35b34801561017c57600080fd5b5060fb54610190906001600160a01b031681565b6040516001600160a01b039091168152602001610167565b3480156101b457600080fd5b506101186101c3366004611aee565b6108e2565b34801561011857600080fd5b6101186101e2366004611cb5565b6109d8565b3480156101f357600080fd5b506101fc610aa8565b604051908152602001610167565b34801561021657600080fd5b5061022a610225366004611b9e565b610b5b565b6040516101679190611d41565b34801561024357600080fd5b50610118610dba565b34801561025857600080fd5b50610261610dee565b6040516101679190611e38565b34801561027a57600080fd5b506097546001600160a01b0316610190565b34801561029857600080fd5b506101186102a7366004611f43565b610e65565b3480156102b857600080fd5b506101186102c7366004611f85565b611173565b3480156102d857600080fd5b506101186102e7366004611aee565b61124e565b3480156102f857600080fd5b506101fc60fe5481565b600054610100900460ff1661031d5760005460ff1615610321565b303b155b6103895760405162461bcd60e51b815260206004820152602e60248201527f496e697469616c697a61626c653a20636f6e747261637420697320616c72656160448201526d191e481a5b9a5d1a585b1a5e995960921b60648201526084015b60405180910390fd5b600054610100900460ff161580156103ab576000805461ffff19166101011790555b6103b36112e6565b60fc80546001600160a01b03199081166001600160a01b0387811691821790935560fd80548316909117905560fb805490911691851691909117905560fe8290558015610406576000805461ff00191690555b50505050565b6001600160a01b037f00000000000000000000000000000000000000000000000000000000000000001630036104545760405162461bcd60e51b815260040161038090611f9e565b7f00000000000000000000000000000000000000000000000000000000000000006001600160a01b031661049d600080516020612355833981519152546001600160a01b031690565b6001600160a01b0316146104c35760405162461bcd60e51b815260040161038090611fea565b6104cc81611315565b604080516000808252602082019092526104e89183919061133f565b50565b60606000825167ffffffffffffffff81111561050957610509611b09565b604051908082528060200260200182016040528015610532578160200160208202803683370190505b5090506000805b84518110156108d85760fd546040516394fd2e5b60e01b81526000916001600160a01b0316906394fd2e5b90610573908990600401612036565b600060405180830381865afa158015610590573d6000803e3d6000fd5b505050506040513d6000823e601f3d908101601f191682016040526105b891908101906120cd565b905060006105c68888610b5b565b60fd5488519192506001600160a01b03169063118e58bd908990869081106105f0576105f061222e565b60200260200101516040518263ffffffff1660e01b815260040161061691815260200190565b602060405180830381865afa158015610633573d6000803e3d6000fd5b505050506040513d601f19601f820116820180604052508101906106579190612244565b6106b15760405162461bcd60e51b815260206004820152602560248201527f53706f727450726564696374696f6e3a204576656e7420646f6573206e6f7420604482015264195e1a5cdd60da1b6064820152608401610380565b60028284815181106106c5576106c561222e565b602002602001015160a0015160028111156106e2576106e2611e22565b146107415760405162461bcd60e51b815260206004820152602960248201527f53706f727450726564696374696f6e3a204576656e7420737461747573206e6f6044820152681d08191958da59195960ba1b6064820152608401610380565b8083815181106107535761075361222e565b602002602001015160a001516107c85760405162461bcd60e51b815260206004820152603460248201527f53706f727450726564696374696f6e3a205573657220646f6573206e6f7420706044820152731c99591a58dd081bdb881d1a1a5cc8195d995b9d60621b6064820152608401610380565b8183815181106107da576107da61222e565b602002602001015160c0015160000b8184815181106107fb576107fb61222e565b60200260200101516060015160000b14801561085657508183815181106108245761082461222e565b602002602001015160e0015160000b8184815181106108455761084561222e565b60200260200101516080015160000b145b1561089157600185858151811061086f5761086f61222e565b9115156020928302919091019091015261088a846001612266565b93506108c3565b60008585815181106108a5576108a561222e565b911515602092830291909101909101526108c0846001612266565b93505b506108d19050816001612266565b9050610539565b5090949350505050565b6097546001600160a01b0316331461090c5760405162461bcd60e51b81526004016103809061228c565b806001600160a01b0381166109755760405162461bcd60e51b815260206004820152602960248201527f53706f727450726564696374696f6e3a20416464726573732030206973206e6f6044820152681d08185b1b1bddd95960ba1b6064820152608401610380565b60fc80546001600160a01b0384166001600160a01b0319918216811790925560fd8054909116821790556040519081527fdd82bdfc28fcc826c53263dc2a2b6083e27e92699ebfee617227e08e21c202f09060200160405180910390a15050565b565b6001600160a01b037f0000000000000000000000000000000000000000000000000000000000000000163003610a205760405162461bcd60e51b815260040161038090611f9e565b7f00000000000000000000000000000000000000000000000000000000000000006001600160a01b0316610a69600080516020612355833981519152546001600160a01b031690565b6001600160a01b031614610a8f5760405162461bcd60e51b815260040161038090611fea565b610a9882611315565b610aa48282600161133f565b5050565b6000306001600160a01b037f00000000000000000000000000000000000000000000000000000000000000001614610b485760405162461bcd60e51b815260206004820152603860248201527f555550535570677261646561626c653a206d757374206e6f742062652063616c60448201527f6c6564207468726f7567682064656c656761746563616c6c00000000000000006064820152608401610380565b5060008051602061235583398151915290565b60606000825167ffffffffffffffff811115610b7957610b79611b09565b604051908082528060200260200182016040528015610bd957816020015b6040805160c08101825260008082526020808301829052928201819052606082018190526080820181905260a08201528252600019909201910181610b975790505b50835190915015610db3576000805b8451811015610db05760006101006000878481518110610c0a57610c0a61222e565b60200260200101518152602001908152602001600020805480602002602001604051908101604052809291908181526020016000905b82821015610cbb57600084815260208082206040805160c0810182526004870290920180546001600160a01b03168352600180820154848601526002820154928401929092526003015480850b6060840152610100810490940b60808301526201000090930460ff16151560a0820152835292019101610c40565b505050509050610cf96040805160c081018252600080825260208201819052918101829052606081018290526080810182905260a081019190915290565b60005b8251811015610d6e57886001600160a01b0316838281518110610d2157610d2161222e565b6020026020010151600001516001600160a01b031603610d5c57828181518110610d4d57610d4d61222e565b60200260200101519150610d6e565b610d67816001612266565b9050610cfc565b5080858581518110610d8257610d8261222e565b6020908102919091010152610d98846001612266565b93505050806001610da99190612266565b9050610be8565b50505b9392505050565b6097546001600160a01b03163314610de45760405162461bcd60e51b81526004016103809061228c565b6109d660006114af565b60fd5460408051630b4184e760e41b815290516060926001600160a01b03169163b4184e709160048083019260009291908290030181865afa158015610e38573d6000803e3d6000fd5b505050506040513d6000823e601f3d908101601f19168201604052610e6091908101906120cd565b905090565b600260c95403610eb75760405162461bcd60e51b815260206004820152601f60248201527f5265656e7472616e637947756172643a207265656e7472616e742063616c6c006044820152606401610380565b600260c95560fd5460405163118e58bd60e01b8152600481018590526001600160a01b039091169063118e58bd90602401602060405180830381865afa158015610f05573d6000803e3d6000fd5b505050506040513d601f19601f82011682018060405250810190610f299190612244565b610f885760405162461bcd60e51b815260206004820152602a60248201527f53706f727450726564696374696f6e3a20537065636966696564206576656e74604482015269081b9bdd08199bdd5b9960b21b6064820152608401610380565b610f923384611501565b610ff25760405162461bcd60e51b815260206004820152602b60248201527f53706f727450726564696374696f6e3a20557365722063616e206f6e6c79207060448201526a726564696374206f6e636560a81b6064820152608401610380565b60fe5460fb5461100d906001600160a01b03163330846115c4565b600084815261010060208181526040808420815160c081018352338082528185018b81528285018981528b890b606085019081528b8a0b60808601908152600160a0870181815288548083018a55898e528b8e209851600490910290980180546001600160a01b03999099166001600160a01b031990991698909817885594518782015592516002870155905160039095018054915193511515620100000262ff00001960ff958616909b0261ffff1990931696851696909617919091179890981693909317909655808752948452828620805480830182558188529490962090930189905590519093927ffa6c24dcf06c9df4f169537901247da98ef80396055ce05cc314e59bd945ad699261115e928a92918a918a918a919586526001600160a01b03949094166020860152600092830b6040860152910b60608401526080830152151560a082015260c00190565b60405180910390a15050600160c95550505050565b6097546001600160a01b0316331461119d5760405162461bcd60e51b81526004016103809061228c565b600081116112135760405162461bcd60e51b815260206004820152603860248201527f53706f727450726564696374696f6e3a205072656469637420416d6f756e742060448201527f73686f756c642062652067726561746572207468616e203000000000000000006064820152608401610380565b60fe8190556040518181527ffe746232fb608791ea2e8041ea1bf993ace03cfd1f2d1aa3d38a6231b7626f4a9060200160405180910390a150565b6097546001600160a01b031633146112785760405162461bcd60e51b81526004016103809061228c565b6001600160a01b0381166112dd5760405162461bcd60e51b815260206004820152602660248201527f4f776e61626c653a206e6577206f776e657220697320746865207a65726f206160448201526564647265737360d01b6064820152608401610380565b6104e8816114af565b600054610100900460ff1661130d5760405162461bcd60e51b8152600401610380906122c1565b6109d661161e565b6097546001600160a01b031633146104e85760405162461bcd60e51b81526004016103809061228c565b7f4910fdfa16fed3260ed0e7147f7cc6da11a60208b5b9406d12a635614ffd91435460ff1615611377576113728361164e565b505050565b826001600160a01b03166352d1902d6040518163ffffffff1660e01b8152600401602060405180830381865afa9250505080156113d1575060408051601f3d908101601f191682019092526113ce9181019061230c565b60015b6114345760405162461bcd60e51b815260206004820152602e60248201527f45524331393637557067726164653a206e657720696d706c656d656e7461746960448201526d6f6e206973206e6f74205555505360901b6064820152608401610380565b60008051602061235583398151915281146114a35760405162461bcd60e51b815260206004820152602960248201527f45524331393637557067726164653a20756e737570706f727465642070726f786044820152681a58589b195555525160ba1b6064820152608401610380565b506113728383836116ea565b609780546001600160a01b038381166001600160a01b0319831681179093556040519116919082907f8be0079c531659141344cd1fd0a4f28419497f9722a3daafe3b4186f6b6457e090600090a35050565b6001600160a01b038216600090815260ff602090815260408083208054825181850281018501909352808352849383018282801561155e57602002820191906000526020600020905b81548152602001906001019080831161154a575b50505050509050600080825111156115b95760005b82518110156115b7578483828151811061158f5761158f61222e565b6020026020010151036115a157600091505b600091506115b0816001612266565b9050611573565b505b506001949350505050565b604080516001600160a01b0385811660248301528416604482015260648082018490528251808303909101815260849091019091526020810180516001600160e01b03166323b872dd60e01b17905261040690859061170f565b600054610100900460ff166116455760405162461bcd60e51b8152600401610380906122c1565b6109d6336114af565b6001600160a01b0381163b6116bb5760405162461bcd60e51b815260206004820152602d60248201527f455243313936373a206e657720696d706c656d656e746174696f6e206973206e60448201526c1bdd08184818dbdb9d1c9858dd609a1b6064820152608401610380565b60008051602061235583398151915280546001600160a01b0319166001600160a01b0392909216919091179055565b6116f3836117e1565b6000825111806117005750805b15611372576104068383611821565b6000611764826040518060400160405280602081526020017f5361666545524332303a206c6f772d6c6576656c2063616c6c206661696c6564815250856001600160a01b03166119159092919063ffffffff16565b80519091501561137257808060200190518101906117829190612244565b6113725760405162461bcd60e51b815260206004820152602a60248201527f5361666545524332303a204552433230206f7065726174696f6e20646964206e6044820152691bdd081cdd58d8d9595960b21b6064820152608401610380565b6117ea8161164e565b6040516001600160a01b038216907fbc7cd75a20ee27fd9adebab32041f755214dbc6bffa90cc0225b39da2e5c2d3b90600090a250565b60606001600160a01b0383163b6118895760405162461bcd60e51b815260206004820152602660248201527f416464726573733a2064656c65676174652063616c6c20746f206e6f6e2d636f6044820152651b9d1c9858dd60d21b6064820152608401610380565b600080846001600160a01b0316846040516118a49190612325565b600060405180830381855af49150503d80600081146118df576040519150601f19603f3d011682016040523d82523d6000602084013e6118e4565b606091505b509150915061190c82826040518060600160405280602781526020016123756027913961192c565b95945050505050565b60606119248484600085611965565b949350505050565b6060831561193b575081610db3565b82511561194b5782518084602001fd5b8160405162461bcd60e51b81526004016103809190612341565b6060824710156119c65760405162461bcd60e51b815260206004820152602660248201527f416464726573733a20696e73756666696369656e742062616c616e636520666f6044820152651c8818d85b1b60d21b6064820152608401610380565b6001600160a01b0385163b611a1d5760405162461bcd60e51b815260206004820152601d60248201527f416464726573733a2063616c6c20746f206e6f6e2d636f6e74726163740000006044820152606401610380565b600080866001600160a01b03168587604051611a399190612325565b60006040518083038185875af1925050503d8060008114611a76576040519150601f19603f3d011682016040523d82523d6000602084013e611a7b565b606091505b5091509150611a8b82828661192c565b979650505050505050565b80356001600160a01b0381168114611aad57600080fd5b919050565b600080600060608486031215611ac757600080fd5b611ad084611a96565b9250611ade60208501611a96565b9150604084013590509250925092565b600060208284031215611b0057600080fd5b610db382611a96565b634e487b7160e01b600052604160045260246000fd5b604051610100810167ffffffffffffffff81118282101715611b4357611b43611b09565b60405290565b604051601f8201601f1916810167ffffffffffffffff81118282101715611b7257611b72611b09565b604052919050565b600067ffffffffffffffff821115611b9457611b94611b09565b5060051b60200190565b60008060408385031215611bb157600080fd5b611bba83611a96565b915060208084013567ffffffffffffffff811115611bd757600080fd5b8401601f81018613611be857600080fd5b8035611bfb611bf682611b7a565b611b49565b81815260059190911b82018301908381019088831115611c1a57600080fd5b928401925b82841015611c3857833582529284019290840190611c1f565b80955050505050509250929050565b6020808252825182820181905260009190848201906040850190845b81811015611c81578351151583529284019291840191600101611c63565b50909695505050505050565b600067ffffffffffffffff821115611ca757611ca7611b09565b50601f01601f191660200190565b60008060408385031215611cc857600080fd5b611cd183611a96565b9150602083013567ffffffffffffffff811115611ced57600080fd5b8301601f81018513611cfe57600080fd5b8035611d0c611bf682611c8d565b818152866020838501011115611d2157600080fd5b816020840160208301376000602083830101528093505050509250929050565b60208082528251828201819052600091906040908185019086840185805b83811015611dbc57825180516001600160a01b0316865287810151888701528681015187870152606080820151840b90870152608080820151840b9087015260a09081015115159086015260c09094019391860191600101611d5f565b509298975050505050505050565b60005b83811015611de5578181015183820152602001611dcd565b838111156104065750506000910152565b60008151808452611e0e816020860160208601611dca565b601f01601f19169290920160200192915050565b634e487b7160e01b600052602160045260246000fd5b60006020808301818452808551808352604092508286019150828160051b8701018488016000805b84811015611f2557603f198a850301865282516101008151865289820151818b880152611e8f82880182611df6565b915050888201518682038a880152611ea78282611df6565b9150506060808301518188015250608080830151818801525060a08083015160038110611ee257634e487b7160e01b86526021600452602486fd5b9087015260c082810151611efa8289018260000b9052565b505060e09182015191611f118782018460000b9052565b509689019694505091870191600101611e60565b50919998505050505050505050565b8060000b81146104e857600080fd5b600080600060608486031215611f5857600080fd5b833592506020840135611f6a81611f34565b91506040840135611f7a81611f34565b809150509250925092565b600060208284031215611f9757600080fd5b5035919050565b6020808252602c908201527f46756e6374696f6e206d7573742062652063616c6c6564207468726f7567682060408201526b19195b1959d85d1958d85b1b60a21b606082015260800190565b6020808252602c908201527f46756e6374696f6e206d7573742062652063616c6c6564207468726f7567682060408201526b6163746976652070726f787960a01b606082015260800190565b6020808252825182820181905260009190848201906040850190845b81811015611c8157835183529284019291840191600101612052565b600082601f83011261207f57600080fd5b815161208d611bf682611c8d565b8181528460208386010111156120a257600080fd5b611924826020830160208701611dca565b805160038110611aad57600080fd5b8051611aad81611f34565b600060208083850312156120e057600080fd5b825167ffffffffffffffff808211156120f857600080fd5b818501915085601f83011261210c57600080fd5b815161211a611bf682611b7a565b81815260059190911b8301840190848101908883111561213957600080fd5b8585015b838110156122215780518581111561215457600080fd5b8601610100818c03601f190181131561216c57600080fd5b612174611b1f565b89830151815260408301518881111561218d5760008081fd5b61219b8e8c8387010161206e565b8b83015250606080840151898111156121b45760008081fd5b6121c28f8d8388010161206e565b6040840152506080808501518284015260a0915081850151818401525060c06121ec8186016120b3565b8284015260e091506121ff8286016120c2565b9083015261220e8484016120c2565b908201528552505091860191860161213d565b5098975050505050505050565b634e487b7160e01b600052603260045260246000fd5b60006020828403121561225657600080fd5b81518015158114610db357600080fd5b6000821982111561228757634e487b7160e01b600052601160045260246000fd5b500190565b6020808252818101527f4f776e61626c653a2063616c6c6572206973206e6f7420746865206f776e6572604082015260600190565b6020808252602b908201527f496e697469616c697a61626c653a20636f6e7472616374206973206e6f74206960408201526a6e697469616c697a696e6760a81b606082015260800190565b60006020828403121561231e57600080fd5b5051919050565b60008251612337818460208701611dca565b9190910192915050565b602081526000610db36020830184611df656fe360894a13ba1a3210667c828492db98dca3e2076cc3735a920a3ca505d382bbc416464726573733a206c6f772d6c6576656c2064656c65676174652063616c6c206661696c6564a2646970667358221220cf08354adfb30ca133b575ad0f52219b0e3b8e310464c3acee768cf827d7bf9664736f6c634300080d0033",
    "sourcePath": "/home/hussain/projects/predictcoin/CRO-Sports-Prediction/contracts/SportPrediction.sol",
    "compiler": {
        "name": "solc",
        "version": "0.8.13+commit.abaa5c0e"
    },
    "functionHashes": {
        "claim()": "4e71d92d",
        "crp()": "3fd8108e",
        "getPredictableEvents()": "8d6d032f",
        "getUserPredictions(address,bytes32[])": "5c453e46",
        "initialize(address,address,uint256)": "1794bb3c",
        "owner()": "8da5cb5b",
        "predict(bytes32,int8,int8)": "9eeec83e",
        "predictAmount()": "fc572b9a",
        "proxiableUUID()": "52d1902d",
        "renounceOwnership()": "715018a6",
        "setOracleAddress(address)": "4c69c00f",
        "setPredictAmount(uint256)": "cedc1f7b",
        "transferOwnership(address)": "f2fde38b",
        "upgradeTo(address)": "3659cfe6",
        "upgradeToAndCall(address,bytes)": "4f1ef286",
        "userPredictStatus(address,bytes32[])": "3760fe8f"
    },
    "gasEstimates": {
        "creation": {
            "codeDepositCost": "1833800",
            "executionCost": "infinite",
            "totalCost": "infinite"
        },
        "external": {
            "claim()": "168",
            "crp()": "2427",
            "getPredictableEvents()": "infinite",
            "getUserPredictions(address,bytes32[])": "infinite",
            "initialize(address,address,uint256)": "infinite",
            "owner()": "2420",
            "predict(bytes32,int8,int8)": "infinite",
            "predictAmount()": "2383",
            "proxiableUUID()": "infinite",
            "renounceOwnership()": "28162",
            "setOracleAddress(address)": "52054",
            "setPredictAmount(uint256)": "25596",
            "transferOwnership(address)": "28378",
            "upgradeTo(address)": "infinite",
            "upgradeToAndCall(address,bytes)": "infinite",
            "userPredictStatus(address,bytes32[])": "infinite"
        },
        "internal": {
            "_authorizeUpgrade(address)": "infinite",
            "_predictIsValid(address,bytes32)": "infinite"
        }
    }
}